S0150000436F7069615F47617272615F322E7372656346
S11300000C9446000C9458000C9458000C9458001E
S11300100C9439020C9458000C9458000C94580019
S11300200C9458000C9458000C9458000C945800EC
S11300300C9458000C9458000C9458000C945800DC
S11300400C94B5010C9458000C94DC030C945800E7
S11300500C9458000C9407020C9458000C9458000B
S11300600C9458000C94580064006F007D008B00C1
S11300709900A700B500BE00FE0304040A0410049E
S1130080160421042C04370442044D0411241FBE19
S1130090CFEFD8E0DEBFCDBF21E0A0E0B1E001C0EA
S11300A01D92AC30B207E1F70E9439010C94E905C6
S11300B00C94000090E08830910508F067C0FC01C2
S11300C0EC5CFF4F0C94CD05EEE7F0E0808181609D
S11300D08083ECE7F0E08081887F808357C0ECE781
S11300E0F0E08081887F8083808181608083EEE777
S11300F0F0E080818260808349C0ECE7F0E0808199
S1130100887F8083808182608083EEE7F0E0808155
S1130110846080833BC0ECE7F0E08081887F80834B
S1130120808183608083EEE7F0E080818860808353
S11301302DC0ECE7F0E08081887F8083808184603B
S11301408083EEE7F0E08081806180831FC0ECE76C
S1130150F0E08081887F8083808185608083EEE702
S1130160F0E080818062808311C0ECE7F0E0808160
S1130170887F808380818660808308C0ECE7F0E01C
S11301808081887F8083808187608083ECE7F0E0D2
S1130190808180628083808180648083EAE7F0E0EC
S11301A0808188608083808187608083808180688B
S11301B080830895F89482E00E945A0083E00E94AC
S11301C05A0084E00E945A0086E00E945A006AEFB6
S11301D080E094E00E94850520E034E040E061E0A6
S11301E085E00E94F00320E034E041E061E085E036
S11301F00E94F00320E034E040E061E085E00E94EA
S1130200CF0420E034E041E061E085E00E94CF04C7
S113021081E00E94B00587B18E7F87B987B18D7F59
S113022087B987B18F7D87B988B1836288B98AB16C
S1130230806F8AB98BB18F7E8BB98BB18F7D8BB96F
S11302408BB18F7B8BB98BB18F778BB984B1816084
S113025084B985B18E7F85B978940895ECE6F0E091
S1130260808183628083E8E6F0E08081826080831D
S113027008950E94DA000E942E01809102018130CB
S113028009F443C038F0823009F44FC0833009F4D4
S11302905CC0F3CF2FEF83EC99E021508040904075
S11302A0E1F700C000008BB18F7E8BB98BB18F7DDD
S11302B08BB9809106012BEA829F812D11248695AA
S11302C0869590E090938900809388008091050141
S11302D0829F812D11248695869590E090938B00C2
S11302E080938A0090910401929F912D11249695F8
S11302F096959093B30080910301829F812D1124E0
S1130300869586958093B400B8CF2FEF83EC99E05F
S1130310215080409040E1F700C000008BB1806123
S11303208BB98BB18F7D8BB9A8CF2FEF83EC99E07C
S1130330215080409040E1F700C000008BB18F7ED7
S11303408BB98BB180628BB998CF2FEF83EC99E096
S1130350215080409040E1F700C000008BB18061E3
S11303608BB98BB180628BB988CF1F920F920FB675
S11303700F9211248F93EF93FF93809100018130AA
S113038091F028F08230D9F0833029F12EC081E039
S113039080930001ECE7F0E08081887F8083808196
S11303A08260808322C082E080930001ECE7F0E069
S11303B08081887F808380818360808316C083E00E
S11303C080930001ECE7F0E08081887F8083808166
S11303D0846080830AC010920001ECE7F0E0808121
S11303E0887F8083808186608083EAE7F0E0808173
S11303F0806480838CED86BD85B3816085BBFF916D
S1130400EF918F910F900FBE0F901F9018951F9230
S11304100F920FB60F9211248F93EF93FF93809155
S11304200001813059F028F0823069F0833081F086
S113043013C080917900809306010EC080917900E9
S11304408093050109C0809179008093040104C060
S11304508091790080930301EAE7F0E08081806174
S11304608083FF91EF918F910F900FBE0F901F909B
S113047018951F920F920FB60F9211242F933F934A
S11304804F935F936F937F938F939F93AF93BF9398
S1130490EF93FF9330990BC0809102018F5F80939B
S11304A0020180910201843011F410920201319909
S11304B03DC18BB18F7B8BB980910201823009F0F1
S11304C085C08BB180648BB98091010181111CC0FE
S11304D0609188007091890080E090E00E94DB05C3
S11304E060918A0070918B0081E090E00E94DB05AE
S11304F06091B30082E090E00E94DB056091B4005B
S113050083E090E00E94DB05809101018130E1F4F9
S1130510609188007091890084E090E00E94DB057E
S113052060918A0070918B0085E090E00E94DB0569
S11305306091B30086E090E00E94DB056091B40016
S113054087E090E00E94DB05809101018230E1F4B4
S1130550609188007091890088E090E00E94DB053A
S113056060918A0070918B0089E090E00E94DB0525
S11305706091B3008AE090E00E94DB056091B400D2
S11305808BE090E00E94DB0580910101833009F04B
S1130590CDC060918800709189008CE090E00E9449
S11305A0DB0560918A0070918B008DE090E00E94E1
S11305B0DB056091B3008EE090E00E94DB05609162
S11305C0B4008FE090E00E94DB05B0C0809102018E
S11305D0833009F0ABC08BB180648BB98091010189
S11305E0811126C080E090E00E94D305809306012B
S11305F090E0909389008093880081E090E00E94CD
S1130600D3058093050190E090938B0080938A003A
S113061082E090E00E94D305809304018093B300AC
S113062083E090E00E94D305809303018093B4009B
S113063080910101813031F584E090E00E94D3057E
S11306408093060190E0909389008093880085E070
S113065090E00E94D3058093050190E090938B0075
S113066080938A0086E090E00E94D3058093040181
S11306708093B30087E090E00E94D3058093030148
S11306808093B40080910101823031F588E090E0DC
S11306900E94D3058093060190E090938900809393
S11306A0880089E090E00E94D3058093050190E0E2
S11306B090938B0080938A008AE090E00E94D30597
S11306C0809304018093B3008BE090E00E94D305F3
S11306D0809303018093B40080910101833031F54C
S11306E08CE090E00E94D3058093060190E0909303
S11306F08900809388008DE090E00E94D305809368
S1130700050190E090938B0080938A008EE090E046
S11307100E94D305809304018093B3008FE090E09E
S11307200E94D305809303018093B400359933C0AC
S1130730809101018F5F80930101809101018430D8
S113074011F41092010180910101811106C085B15B
S11307508E7F85B98BB18F778BB980910101813000
S113076031F48BB180688BB985B18E7F85B9809166
S11307700101823031F48BB18F778BB985B18160FF
S113078085B980910101833031F48BB180688BB9D4
S113079085B1816085B9FF91EF91BF91AF919F9130
S11307A08F917F916F915F914F913F912F910F9016
S11307B00FBE0F901F9018951F920F920FB60F92B5
S11307C011248F938091C60080930B018091C00007
S11307D085FFFCCF8F910F900FBE0F901F9018953F
S11307E00F931F93D901082F10E00A30110508F068
S11307F05EC0F801E45CFF4F0C94CD05E0E8F0E046
S113080090819160908353C0E0E8F0E09081926021
S113081090834DC0E0E8F0E090819360908347C0FE
S1130820E1E8F0E090819061908341C0E1E8F0E07C
S1130830908190619083E0E8F0E0908198609083EB
S113084036C0E1E8F0E0908198609083E0E8F0E061
S11308509081916090832BC0E1E8F0E090819860F2
S11308609083E0E8F0E090819260908320C0E1E81A
S1130870F0E0908198609083E0E8F0E090819360EC
S1130880908315C0E1E8F0E0908198619083E0E8FE
S1130890F0E09081926090830AC0E1E8F0E09081FA
S11308A098619083E0E8F0E090819360908351E058
S11308B02BEF280F223008F050E031E0873009F0A8
S11308C030E091E0883009F090E021E0893009F0CF
S11308D020E0352B932B11F4222381F1442319F0CA
S11308E04130B9F02BC0662341F0613059F4E0E89F
S11308F0F0E080818068808305C0E0E8F0E08081DA
S1130900806C808384B1826084B985B18D7F85B920
S113091015C0662341F0613059F4E0E8F0E08081CD
S11309208062808305C0E0E8F0E08081806380839A
S113093084B1846084B985B18B7F85B9A034B10555
S1130940D1F028F4109759F0189779F025C0A11523
S113095081E0B807B1F0A115B440C9F01DC0E1E8C9
S1130960F0E080818160808317C0E1E8F0E080815D
S11309708260808311C0E1E8F0E08081836080833D
S11309800BC0E1E8F0E080818460808305C0E1E889
S1130990F0E08081856080831F910F9108958430F9
S11309A079F018F4882331F026C08530A1F089301D
S11309B0C1F021C0E0EBF0E09081916090831BC016
S11309C0E1EBF0E0908191609083E0EBF0E09081C6
S11309D09860908310C0E0EBF0E090819360908386
S11309E00AC0E1EBF0E0908198609083E0EBF0E0E6
S11309F0908193609083E1E07BEF780F723008F090
S1130A00E0E051E0873009F050E091E0883009F0EF
S1130A1090E071E0893009F070E05E2B952B11F4C1
S1130A20772381F1442319F04130B9F02BC06623B8
S1130A3041F0613059F4E0EBF0E08081806880831C
S1130A4005C0E0EBF0E08081806C808384B1886035
S1130A5084B985B1877F85B915C0662341F06130BB
S1130A6059F4E0EBF0E080818062808305C0E0EB24
S1130A70F0E08081806380838AB188608AB98BB119
S1130A80877F8BB92034310541F148F42830310592
S1130A90C1F020323105D9F0232BB1F50CC021155A
S1130AA081E0380731F1211584E0380741F120381D
S1130AB0310551F518C0E1EBF0E08081816080835D
S1130AC00895E1EBF0E08081826080830895E1EB9A
S1130AD0F0E08081836080830895E1EBF0E0808121
S1130AE0846080830895E1EBF0E0808185608083F9
S1130AF00895E1EBF0E08081866080830895E1EB66
S1130B00F0E0808187608083089580349105B1F09E
S1130B1028F4009759F0089769F01BC0811521E06B
S1130B20920781F08115944089F013C085B58160E6
S1130B3085BD0FC085B5826085BD0BC085B583605A
S1130B4085BD07C085B5846085BD03C085B5856056
S1130B5085BD66BDEEE6F0E0808181608083089506
S1130B608130D1F48AB18E7F8AB98AB182608AB920
S1130B701092C000E1ECF0E01082808188698083EB
S1130B80E2ECF0E0108280818660808387E690E06A
S1130B909093C5008093C4000895EE0FFF1F059045
S1130BA0F491E02D0994F999FECF92BD81BDF89A94
S1130BB0992780B50895262FF999FECF1FBA92BDC3
S1130BC081BD20BD0FB6F894FA9AF99A0FBE01962A
S1090BD00895F894FFCF24
S9030000FC
